:100000000C9448000C9465000C9465000C946500F9
:100010000C9465000C9465000C9465000C946500CC
:100020000C9465000C9465000C9465000C946500BC
:100030000C94DD010C9465000C9465000C94650033
:100040000C94D5050C9465000C9465000C94650027
:100050000C9465000C9465000C9465000C9465008C
:100060000C9465000C9465000C9465000C9465007C
:100070000C9465000C9465000C9465000C9465006C
:100080000C9465000C9465000C9465000C9465005C
:1000900011241FBECFEFCDBFDFE3DEBF10E3A0E032
:1000A000B0E3EAE0F4E102C005900D92A031B1079F
:1000B000D9F722E3A0E1B0E301C01D92AC35B2074D
:1000C000E1F70E949E040C94C6090C9400000E9463
:1000D0008D050895F894FC01EE5FFE4F1082319774
:1000E00010823197108278940895F894FB01EF5FA5
:1000F000FE4F908121E0290F2083FB01E90FF11DC4
:100100008083FB01EE5FFE4F80818F5F8083789458
:100110000895F894FC01EE5FFE4F2081222379F0D0
:100120003297308141E0430F4083FC01E30FF11D22
:100130003081FC01EE5FFE4F2150208301C030E092
:100140007894832F0895F894FC01EE5FFE4F808130
:10015000882311F080E001C081E078940895CF9366
:10016000DF93EC01FC01ED5FFE4F81E0808331966F
:100170001082CE010E946A00CE01885E9E4F0E94CE
:100180006A00CB5FDE4F18821982DF91CF9108950C
:100190001F93CF93DF93EC010E94A300182F8111CE
:1001A00083C0FE01EB5FFE4F80819181892B19F4A2
:1001B00081E032978083CE010E948900FE01ED5FCD
:1001C000FE4F9081923089F0943061F1913009F0C6
:1001D0006EC0803109F06BC082E08083CB5FDE4F60
:1001E00082E390E08883998362C0823059F4FE01F3
:1001F000EC5FFE4F108273961082CD5FDE4F84E07D
:10020000888355C0803129F480E993E50E94B806BF
:100210004EC0CD5FDE4F81E0888380E993E50E9488
:10022000B80645C0FE01E95EFE4F9081903129F489
:10023000CD5FDE4F81E088833AC0FE01EC5FFE4F68
:1002400020812223E9F0803181F4739621E0290F87
:100250002083FE01E90FF11DE95FFE4F90E19083DD
:10026000FE01EC5FFE4F10820BC0CD5FDE4F91E0D0
:1002700098838330D9F08BEA93E50E94B80617C0C3
:10028000803129F4CC5FDE4F81E0888310C0FE010D
:10029000E95EFE4F908121E0290F2083C90FD11D17
:1002A000C95FDE4F888303C010E001C011E0812FD9
:1002B000DF91CF911F910895AF92BF92CF92DF92BD
:1002C000EF92FF920F931F93CF93DF935B01E42E86
:1002D000885E9E4F6C01BC0180E10E947500B601F2
:1002E00082E00E947500C0E0D0E0F12C11C08501D1
:1002F0000C0F1D1FF8018081F80E803119F4B60132
:100300000E947500B601F80180810E947500219657
:100310008E2D90E0C817D90754F3B6018F2D0E9497
:100320007500F0E1FF1204C0B60180E10E94750083
:10033000B60180E10E947500B60183E00E9475005D
:10034000DF91CF911F910F91FF90EF90DF90CF90B1
:10035000BF90AF90089580912030811110C00E940D
:100360002906882331F063E270E380913E320E94D7
:10037000750061E08EE392E30E943D0608950E94BD
:1003800029068823C9F08BE391E30E94A300811121
:100390000CC08BE391E30E9489008093103061E0F0
:1003A00080E190E30E94300608951092203061E0D1
:1003B0008EE392E30E943D0608951F920F920FB6BE
:1003C0000F9211244F935F936F937F938F939F931B
:1003D000AF93BF93EF93FF93809128319091293190
:1003E000892B39F0E8E2F1E38081918101978083E4
:1003F00091838091003090910130892B49F0809158
:10040000003090910130019780930030909301303B
:100410008091123090911330892B49F080911230E5
:100420009091133001978093123090931330809104
:100430001B30823071F4EBE1F0E341815281638142
:1004400074814F5F5F4F6F4F7F4F41835283638350
:1004500074838130C9F480911C3090911D30A0913B
:100460001E30B0911F30892B8A2B8B2B69F0EBE16A
:10047000F0E381819281A381B4810197A109B1093F
:1004800081839283A383B48381E08093860AFF9162
:10049000EF91BF91AF919F918F917F916F915F91FC
:1004A0004F910F900FBE0F901F901895CF93DF9331
:1004B000EC0119821A821B821C8280E090E00E946B
:1004C00079098A3A19F482E0888301C01882DF91A1
:1004D000CF9108956AEA80E090E00E948109089532
:1004E00080911B30813051F580911C3090911D30EE
:1004F000A0911E30B0911F30892B8A2B8B2BF1F4E9
:1005000086EC93E50E94B80682E080931B300E943F
:100510006A022FE78AE196E0215080409040E1F79F
:1005200000C0000081B1806881B987EA91E6019737
:10053000F1F700C0000081B18F7781B9089560EABA
:1005400080E090E00E94810908958BEA91E00E948A
:10055000D00561E08EE392E30E943D0610922030C8
:100560000895EF92FF920F931F93CF93DF93CDB730
:10057000DEB76997CDBFDEBF7C01109221301092AB
:10058000223090E00BC0F701E20FF31F4081940F7F
:100590002F5F3F4F2093213030932230462F50E081
:1005A00041505109209121303091223024173507D4
:1005B00054F3F701E60FF11D31978081981769F028
:1005C0001F929F9384EE93E59F938F930E94A206C0
:1005D0000F900F900F900F90F8C0F70180818A3034
:1005E00009F490C030F4883061F1893009F446C0D4
:1005F000ECC08B3009F4C9C08F3F09F0E6C0898395
:1006000086E58A831B8281E08C8383E38D8382E38A
:100610008E8380E38F8388E3888780E2898784E5FF
:100620008A879FE49B878C8785E48D878DE48E87FE
:100630001F864FE0BE016F5F7F4F83E290E30E9411
:100640005C0188E089832091403230914132A8ECEE
:10065000B9E10E9493062FEF33E040E050E00E94A2
:1006600071062A833B834C835D8345E0BE016F5F47
:100670007F4F83E290E30E945C01A7C0F7012181D4
:10068000828190E0A0E0B0E0BA2FA92F982F8827B0
:10069000AC01BD01420F511D611D711D9381892F58
:1006A00090E0A0E0B0E0DC0199278827840F951F37
:1006B000A61FB71F448150E060E070E0742F6627EA
:1006C00055274427840F951FA61FB71F813091051A
:1006D000A105F0E8BF0708F078C0EBE1F0E3818303
:1006E0009283A383B48381E080830E949F0289E088
:1006F000898341E0BE016F5F7F4F83E290E30E94F8
:100700005C0163C08AE0898380911B308A838130D9
:1007100049F018F08230E9F02FC01B821C821D8244
:100720001E822AC0EBE1F0E381819281A381B48132
:100730008B8381819281A381B4819C838181928109
:10074000A381B481AD8381819281A381B481BE8371
:1007500013C080911C3090911D30A0911E30B0913B
:100760001F30B095A095909581959F4FAF4FBF4F8B
:100770008B839C83AD83BE8346E0BE016F5F7F4F5A
:1007800083E290E30E945C0120C08BE089838EB1FC
:1007900082FB882780F99EB1092F017010E0000FBD
:1007A000111F9EB191FBAA27A0F9B0E0AA0FBB1FB1
:1007B000AA0FBB1F082BA02BAA8342E0BE016F5FCC
:1007C0007F4F83E290E30E945C016996CDBFDEBF5C
:1007D000DF91CF911F910F91FF90EF900895CF93EC
:1007E000DF931F92CDB7DEB783E290E30E94C8008B
:1007F000882331F060913A318AE291E30E94B1029C
:1008000080912030882389F08091123090911330AC
:10081000892B59F489EF93E50E94B80661E08EE3D5
:1008200092E30E943D06109220308BE391E30E94F8
:10083000A300811117C080912030811113C081E085
:10084000809320308BE391E30E948900898384E6C2
:1008500090E0809312309093133061E0CE010196C6
:100860000E9430060F90DF91CF91089583E00E949F
:10087000E10480934032909341320895CF93DF9307
:100880008091003090910130892B09F054C08CE2A6
:1008900091E08093003090930130C091113081E05D
:1008A0008C0F80931130D0E083E00E94E104CC0FE4
:1008B000DD1FCE5BDD4C88839983809111308A30B7
:1008C000D1F51092403210924132109221301092A4
:1008D000223016C0FC01EE0FFF1FEE5BFD4C2081A5
:1008E00031814091403250914132240F351F209385
:1008F00040323093413201968093213090932230E0
:1009000080912130909122308A3091051CF3209102
:10091000403230914132ADECBCEC0E94930696958A
:100920008795969587959695879580934032909375
:10093000413210921130DF91CF91089583E290E31C
:100940000E94AF008BE190E30E9456020E94670074
:100950000E94A5020E94360478942FE78AE196E06F
:10096000215080409040E1F700C0000084E094E511
:100970000E94B80649E068ED80E091E00E94BE0563
:100980000E94EF030E9470020E943E04A895F8CFD7
:10099000E0E0F6E085E5828383E0868381E0808382
:1009A00080E00895E0E0F6E0868381E080870895A6
:1009B00080910B0681700895809110069091110628
:1009C00008950E94D2040E94D8048823E1F30E9473
:1009D000DC04E0E0F6E0238521602387089580E0D1
:1009E000089540E068ED81E690E00E94BE0580E059
:1009F000089580E0089580E008C0E82FF0E0E05F0F
:100A0000FB4F9081986090838F5F8830B0F380E0D7
:100A100008C0E82FF0E0E05DFB4F90819860908384
:100A20008F5F8830B0F380E008C0E82FF0E0E05B33
:100A3000FB4F9081986090838F5F8830B0F380E0A7
:100A400008C0E82FF0E0E059FB4F90819860908358
:100A50008F5F8830B0F380E008C0E82FF0E0E05707
:100A6000FB4F9081986090838F5F8830B0F380E077
:100A700008C0E82FF0E0E055FB4F9081986090832C
:100A80008F5F8830B0F30895E3E7F4E08081887FDA
:100A9000846080838CB1877F8CB98081877F8083DD
:100AA0000E94C804089584B38D7F84BBE1EBF4E019
:100AB0008081877F808385B38E7F85BB84B381608F
:100AC00084BB0E94550608950E944906089589B185
:100AD0008D7F89B988B1826088B988B18E7F88B9E5
:100AE000E0E5F4E08081877F808388B18B7F88B9DF
:100AF000E2E5F4E08081877F808388B1877F88B9D1
:100B0000E3E5F4E08081877F8083E0EEF5E0838198
:100B1000816083830E94C40508950E94FB0481B113
:100B20008F7781B980B1806880B98CB18E7F8CB9A4
:100B3000E0E7F4E08081877F80838CB18D7F8CB982
:100B4000E1E7F4E08081877F80838CB18B7F8CB973
:100B5000E2E7F4E08081877F80830E94F1040E94B5
:100B600044050E9453050E9464050E9467050E9487
:100B7000F9040E94C2050E94EF040895FC0164BFBD
:100B80004083089580E00895E0ECF8E081E0808300
:100B900011828283E4E1F0E31082158216820895C7
:100BA0008093193090931A3008951F920F920FB6C8
:100BB0000F9211242F933F934F935F936F937F93E3
:100BC0008F939F93AF93BF93EF93FF93E0ECF8E085
:100BD0008381848190911830923029F0E091153012
:100BE000F09116308083E4E1F0E3A181B2819D01B0
:100BF0002F5F3F4F21833283913019F011962C9152
:100C000001C020E0E4E1F0E3838181508383882305
:100C100029F0923019F42093C4080AC0E4E1F0E30B
:100C200083E080830580F681E02D309709F00995F7
:100C3000FF91EF91BF91AF919F918F917F916F91B4
:100C40005F914F913F912F910F900FBE0F901F908A
:100C500018959091143081E0933009F080E0089568
:100C6000E4E1F0E381839283638322E024832083A1
:100C7000FC0180818093C4080895E4E1F0E381835E
:100C80009283638381E0848382E080831092C4082E
:100C90000895E0E8FAE080E29EE484879587118277
:100CA00081E08583808380E00895E0E4F8E086EBCE
:100CB00092E08087918780EC868382E090E3809346
:100CC00058329093593280E008959091440895FFEE
:100CD000FCCF8093420808950E94650680E090E072
:100CE0000895A1E21A2EAA1BBB1BFD010DC0AA1F6D
:100CF000BB1FEE1FFF1FA217B307E407F50720F085
:100D0000A21BB30BE40BF50B661F771F881F991FFF
:100D10001A9469F760957095809590959B01AC0148
:100D2000BD01CF010895A29FB001B39FC001A39F51
:100D3000700D811D1124911DB29F700D811D112414
:100D4000911D0895A0E0B0E0E8EAF6E00C94A50952
:100D5000AE014B5F5F4FFA0161917191AF018091DC
:100D60005832909159320E94E806E2E00C94BE0994
:100D70000F931F93CF93DF93E0915832F091593244
:100D8000238121FF1BC08C01D0E0C0E0F8018191DC
:100D90008F016091583270915932DB011896ED91B4
:100DA000FC911997882331F00995892B79F3DFEFAE
:100DB000CFEFECCF8AE00995892B19F08FEF9FEFE9
:100DC00002C08D2F9C2FDF91CF911F910F9108951D
:100DD000ABE0B0E0EEEEF6E00C9495096C017B011F
:100DE0008A01FC0116821782838181FFCCC1CE016A
:100DF00001963C01F6019381F70193FD859193FFE4
:100E000081917F01882309F4BAC1853239F493FDB9
:100E1000859193FF81917F01853229F4B60190E09D
:100E20000E94DF08E7CF912C212C312CFFE1F31534
:100E3000D8F08B3279F038F4803279F08332A1F433
:100E4000232D20611DC08D3261F0803369F4232D84
:100E5000216016C0832D8260382EE32DE4603E2E83
:100E60002AC0F32DF8601DC037FC2DC020ED280FDF
:100E70002A3040F08E32B9F436FC81C1232D206433
:100E8000322E19C036FE06C08AE0989E200D11242D
:100E9000922E11C0EAE02E9E200D1124222EF32D59
:100EA000F0623F2E08C08C3621F4832D8068382EE6
:100EB00002C0883641F4F70193FD859193FF81913B
:100EC0007F018111B3CF982F9F7D9554933028F4E3
:100ED0000C5F1F4F9FE399830DC0833631F083373A
:100EE00071F0833509F059C021C0F80180818983F0
:100EF0000E5F1F4F88248394912C530113C0280147
:100F0000F2E04F0E511CF801A080B18036FE03C004
:100F1000692D70E002C06FEF7FEFC5010E94D40819
:100F20004C018201F32DFF773F2E16C0280122E0ED
:100F3000420E511CF801A080B18036FE03C0692D1D
:100F400070E002C06FEF7FEFC5010E94C9084C013D
:100F5000F32DF0683F2E820133FC1BC0822D90E000
:100F600088169906B0F4B60180E290E00E94DF088E
:100F70002A94F4CFF50137FC859137FE81915F010A
:100F8000B60190E00E94DF0821102A9421E0821A25
:100F900091088114910471F7E8C0843611F0893604
:100FA00041F5F80137FE07C060817181828193812C
:100FB0000C5F1F4F08C060817181072E000C880BE9
:100FC000990B0E5F1F4FF32DFF763F2E97FF09C041
:100FD00090958095709561957F4F8F4F9F4FF068EA
:100FE0003F2E2AE030E0A3010E941B09882E8618BC
:100FF00045C0853731F4232D2F7EB22E2AE030E014
:1010000025C0932D997FB92E8F36C1F018F48835FD
:1010100079F0B5C0803719F0883721F0B0C0E92FDA
:10102000E061BE2EB4FE0DC0FB2DF460BF2E09C0E2
:1010300034FE0AC0292F2660B22E06C028E030E018
:1010400005C020E130E002C020E132E0F801B7FE47
:1010500007C060817181828193810C5F1F4F06C040
:101060006081718180E090E00E5F1F4FA3010E94BC
:101070001B09882E8618FB2DFF773F2E36FE0DC0EC
:10108000232D2E7FA22E891458F434FE0BC032FC7F
:1010900009C0832D8E7EA82E05C0B82CA32C03C0BA
:1010A000B82C01C0B92CA4FE0FC0FE01E80DF11D43
:1010B0008081803321F49A2D997EA92E09C0A2FE49
:1010C00006C0B394B39404C08A2D867809F0B39413
:1010D000A3FC11C0A0FE06C0B21488F4280C922C08
:1010E0009B180EC0B21460F4B60180E290E00E943A
:1010F000DF08B394F7CFB21418F42B1802C0982C61
:10110000212CA4FE10C0B60180E390E00E94DF080D
:10111000A2FE17C0A1FC03C088E790E002C088E5EA
:1011200090E0B6010CC08A2D867859F0A1FE02C06D
:101130008BE201C080E2A7FC8DE2B60190E00E9444
:10114000DF08891438F4B60180E390E00E94DF08DC
:101150009A94F7CF8A94F301E80DF11D8081B601CE
:1011600090E00E94DF088110F5CF222009F442CEE2
:10117000B60180E290E00E94DF082A94F6CFF601E3
:101180008681978102C08FEF9FEF2B96E2E10C944E
:10119000AE09FC010590615070400110D8F78095B0
:1011A00090958E0F9F1F0895FC0161507040019033
:1011B0000110D8F7809590958E0F9F1F08950F937B
:1011C0001F93CF93DF93FB01238121FD03C08FEF9A
:1011D0009FEF2CC022FF16C04681578124813581A4
:1011E0004217530744F4A081B1819D012F5F3F4F07
:1011F000208331838C93268137812F5F3F4F268355
:10120000378314C08B01EC01FB010084F185E02DD4
:101210000995892BE1F6D80116968D919C91179727
:10122000019616968D939C931797CE01DF91CF91DF
:101230001F910F910895FA01AA27283051F120310A
:1012400081F1E8946F936E7F6E5F7F4F8F4F9F4F5A
:10125000AF4FB1E03ED0B4E03CD0670F781F891F9C
:101260009A1FA11D680F791F8A1F911DA11D6A0F6A
:10127000711D811D911DA11D20D009F468943F911D
:101280002AE0269F11243019305D3193DEF6CF011C
:101290000895462F4770405D4193B3E00FD0C9F7E2
:1012A000F6CF462F4F70405D4A3318F0495D31FD4F
:1012B0004052419302D0A9F7EACFB4E0A6959795A2
:1012C000879577956795BA95C9F700976105710578
:1012D00008959B01AC010A2E0694579547953795C2
:1012E0002795BA95C9F7620F731F841F951FA01D1C
:1012F000089503D0808199270895FC01E050FC4EA9
:101300000895262FAF93BF93E0E0F0E1328131FDE5
:10131000FDCFDC01A050BC4E2C932DE924BF23E06F
:1013200020830196BF91AF9108952F923F924F92E3
:101330005F926F927F928F929F92AF92BF92CF9265
:10134000DF92EF92FF920F931F93CF93DF93CDB76E
:10135000DEB7CA1BDB0BCDBFDEBF09942A883988F4
:1013600048885F846E847D848C849B84AA84B9843D
:10137000C884DF80EE80FD800C811B81AA81B98149
:10138000CE0FD11DCDBFDEBFED010895F894FFCF84
:1013900050617273655374617465205354583A20D8
:1013A000527820213D205354580D00535458455431
:1013B000583A20444C45206E616F206475706C690A
:1013C0006361646F0D007761746368646F67506F69
:1013D0006C28766F6964293A205472696767657270
:1013E00065640D0077726F6E672063732C206361F4
:1013F0006C633A2025780D0A00547854696D656F46
:0A14000075740D00626F6F740D002B
:10140A00640000000002000000006C0600000000FA
:00000001FF
